{"contracts/MockAave.sol":{"MockPool":{"abi":[{"anonymous":false,"inputs":[{"indexed":false,"internalType":"address","name":"receiver","type":"address"},{"indexed":false,"internalType":"address[]","name":"assets","type":"address[]"},{"indexed":false,"internalType":"uint256[]","name":"amounts","type":"uint256[]"},{"indexed":false,"internalType":"uint256[]","name":"modes","type":"uint256[]"},{"indexed":false,"internalType":"address","name":"onBehalfOf","type":"address"},{"indexed":false,"internalType":"bytes","name":"params","type":"bytes"},{"indexed":false,"internalType":"uint16","name":"referralCode","type":"uint16"}],"name":"FlashLoan","type":"event"},{"anonymous":false,"inputs":[{"indexed":false,"internalType":"address","name":"collateralAsset","type":"address"},{"indexed":false,"internalType":"address","name":"debtAsset","type":"address"},{"indexed":false,"internalType":"address","name":"user","type":"address"},{"indexed":false,"internalType":"uint256","name":"debtToCover","type":"uint256"},{"indexed":false,"internalType":"bool","name":"receiveAToken","type":"bool"}],"name":"LiquidationCall","type":"event"},{"inputs":[{"internalType":"address","name":"receiverAddress","type":"address"},{"internalType":"address[]","name":"assets","type":"address[]"},{"internalType":"uint256[]","name":"amounts","type":"uint256[]"},{"internalType":"uint256[]","name":"modes","type":"uint256[]"},{"internalType":"address","name":"onBehalfOf","type":"address"},{"internalType":"bytes","name":"params","type":"bytes"},{"internalType":"uint16","name":"referralCode","type":"uint16"}],"name":"flashLoan","outputs":[],"stateMutability":"nonpayable","type":"function"},{"inputs":[{"internalType":"address","name":"collateralAsset","type":"address"},{"internalType":"address","name":"debtAsset","type":"address"},{"internalType":"address","name":"user","type":"address"},{"internalType":"uint256","name":"debtToCover","type":"uint256"},{"internalType":"bool","name":"receiveAToken","type":"bool"}],"name":"liquidationCall","outputs":[],"stateMutability":"nonpayable","type":"function"}],"evm":{"bytecode":{"linkReferences":{},"object":"608060405234801561001057600080fd5b506107c4806100206000396000f3fe608060405234801561001057600080fd5b50600436106100355760003560e01c8062a718a91461003a578063ab9c4b5d14610056575b600080fd5b610054600480360381019061004f91906101e6565b610072565b005b610070600480360381019061006b91906103ac565b6100b8565b005b7fccd0ed30f4a4a64087434b2610b1060b5d57181802fbd5ceea2a18b7ee2ae3b485858585856040516100a99594939291906104fd565b60405180910390a15050505050565b7f7043f435e601d5744e00080c1566a1ab27107bf5222d48f979f70db8c7d33c978b8b8b8b8b8b8b8b8b8b8b6040516100fb9b9a999897969594939291906106fb565b60405180910390a15050505050505050505050565b600080fd5b600080fd5b600073ffffffffffffffffffffffffffffffffffffffff82169050919050565b60006101458261011a565b9050919050565b6101558161013a565b811461016057600080fd5b50565b6000813590506101728161014c565b92915050565b6000819050919050565b61018b81610178565b811461019657600080fd5b50565b6000813590506101a881610182565b92915050565b60008115159050919050565b6101c3816101ae565b81146101ce57600080fd5b50565b6000813590506101e0816101ba565b92915050565b600080600080600060a0868803121561020257610201610110565b5b600061021088828901610163565b955050602061022188828901610163565b945050604061023288828901610163565b935050606061024388828901610199565b9250506080610254888289016101d1565b9150509295509295909350565b600080fd5b600080fd5b600080fd5b60008083601f84011261028657610285610261565b5b8235905067ffffffffffffffff8111156102a3576102a2610266565b5b6020830191508360208202830111156102bf576102be61026b565b5b9250929050565b60008083601f8401126102dc576102db610261565b5b8235905067ffffffffffffffff8111156102f9576102f8610266565b5b6020830191508360208202830111156103155761031461026b565b5b9250929050565b60008083601f84011261033257610331610261565b5b8235905067ffffffffffffffff81111561034f5761034e610266565b5b60208301915083600182028301111561036b5761036a61026b565b5b9250929050565b600061ffff82169050919050565b61038981610372565b811461039457600080fd5b50565b6000813590506103a681610380565b92915050565b600080600080600080600080600080600060e08c8e0312156103d1576103d0610110565b5b60006103df8e828f01610163565b9b505060208c013567ffffffffffffffff811115610400576103ff610115565b5b61040c8e828f01610270565b9a509a505060408c013567ffffffffffffffff81111561042f5761042e610115565b5b61043b8e828f016102c6565b985098505060608c013567ffffffffffffffff81111561045e5761045d610115565b5b61046a8e828f016102c6565b9650965050608061047d8e828f01610163565b94505060a08c013567ffffffffffffffff81111561049e5761049d610115565b5b6104aa8e828f0161031c565b935093505060c06104bd8e828f01610397565b9150509295989b509295989b9093969950565b6104d98161013a565b82525050565b6104e881610178565b82525050565b6104f7816101ae565b82525050565b600060a08201905061051260008301886104d0565b61051f60208301876104d0565b61052c60408301866104d0565b61053960608301856104df565b61054660808301846104ee565b9695505050505050565b600082825260208201905092915050565b6000819050919050565b6105748161013a565b82525050565b6000610586838361056b565b60208301905092915050565b60006105a16020840184610163565b905092915050565b6000602082019050919050565b60006105c28385610550565b93506105cd82610561565b8060005b85811015610606576105e38284610592565b6105ed888261057a565b97506105f8836105a9565b9250506001810190506105d1565b5085925050509392505050565b600082825260208201905092915050565b600080fd5b82818337505050565b600061063e8385610613565b93507f07ffffffffffffffffffffffffffffffffffffffffffffffffffffffffffffff83111561067157610670610624565b5b602083029250610682838584610629565b82840190509392505050565b600082825260208201905092915050565b82818337600083830152505050565b6000601f19601f8301169050919050565b60006106cb838561068e565b93506106d883858461069f565b6106e1836106ae565b840190509392505050565b6106f581610372565b82525050565b600060e082019050610710600083018e6104d0565b8181036020830152610723818c8e6105b6565b90508181036040830152610738818a8c610632565b9050818103606083015261074d81888a610632565b905061075c60808301876104d0565b81810360a083015261076f8185876106bf565b905061077e60c08301846106ec565b9c9b50505050505050505050505056fea26469706673582212208aa5ca18be3456c8460bbf497c3586f3c2b85a9d5c9b3bb138a5936039b703da64736f6c63430008140033","opcodes":"PUSH1 0x80 PUSH1 0x40 MSTORE CALLVALUE DUP1 ISZERO PUSH2 0x10 JUMPI PUSH1 0x0 DUP1 REVERT JUMPDEST POP PUSH2 0x7C4 DUP1 PUSH2 0x20 PUSH1 0x0 CODECOPY PUSH1 0x0 RETURN INVALID PUSH1 0x80 PUSH1 0x40 MSTORE CALLVALUE DUP1 ISZERO PUSH2 0x10 JUMPI PUSH1 0x0 DUP1 REVERT JUMPDEST POP PUSH1 0x4 CALLDATASIZE LT PUSH2 0x35 JUMPI PUSH1 0x0 CALLDATALOAD PUSH1 0xE0 SHR DUP1 PUSH3 0xA718A9 EQ PUSH2 0x3A JUMPI DUP1 PUSH4 0xAB9C4B5D EQ PUSH2 0x56 JUMPI JUMPDEST PUSH1 0x0 DUP1 REVERT JUMPDEST PUSH2 0x54 PUSH1 0x4 DUP1 CALLDATASIZE SUB DUP2 ADD SWAP1 PUSH2 0x4F SWAP2 SWAP1 PUSH2 0x1E6 JUMP JUMPDEST PUSH2 0x72 JUMP JUMPDEST STOP JUMPDEST PUSH2 0x70 PUSH1 0x4 DUP1 CALLDATASIZE SUB DUP2 ADD SWAP1 PUSH2 0x6B SWAP2 SWAP1 PUSH2 0x3AC JUMP JUMPDEST PUSH2 0xB8 JUMP JUMPDEST STOP JUMPDEST PUSH32 0xCCD0ED30F4A4A64087434B2610B1060B5D57181802FBD5CEEA2A18B7EE2AE3B4 DUP6 DUP6 DUP6 DUP6 DUP6 PUSH1 0x40 MLOAD PUSH2 0xA9 SWAP6 SWAP5 SWAP4 SWAP3 SWAP2 SWAP1 PUSH2 0x4FD JUMP JUMPDEST PUSH1 0x40 MLOAD DUP1 SWAP2 SUB SWAP1 LOG1 POP POP POP POP POP JUMP JUMPDEST PUSH32 0x7043F435E601D5744E00080C1566A1AB27107BF5222D48F979F70DB8C7D33C97 DUP12 DUP12 DUP12 DUP12 DUP12 DUP12 DUP12 DUP12 DUP12 DUP12 DUP12 PUSH1 0x40 MLOAD PUSH2 0xFB SWAP12 SWAP11 SWAP10 SWAP9 SWAP8 SWAP7 SWAP6 SWAP5 SWAP4 SWAP3 SWAP2 SWAP1 PUSH2 0x6FB JUMP JUMPDEST PUSH1 0x40 MLOAD DUP1 SWAP2 SUB SWAP1 LOG1 POP POP POP POP POP POP POP POP POP POP POP JUMP JUMPDEST PUSH1 0x0 DUP1 REVERT JUMPDEST PUSH1 0x0 DUP1 REVERT JUMPDEST PUSH1 0x0 PUSH20 0xFFFFFFFFFFFFFFFFFFFFFFFFFFFFFFFFFFFFFFFF DUP3 AND SWAP1 POP SWAP2 SWAP1 POP JUMP JUMPDEST PUSH1 0x0 PUSH2 0x145 DUP3 PUSH2 0x11A JUMP JUMPDEST SWAP1 POP SWAP2 SWAP1 POP JUMP JUMPDEST PUSH2 0x155 DUP2 PUSH2 0x13A JUMP JUMPDEST DUP2 EQ PUSH2 0x160 JUMPI PUSH1 0x0 DUP1 REVERT JUMPDEST POP JUMP JUMPDEST PUSH1 0x0 DUP2 CALLDATALOAD SWAP1 POP PUSH2 0x172 DUP2 PUSH2 0x14C JUMP JUMPDEST SWAP3 SWAP2 POP POP JUMP JUMPDEST PUSH1 0x0 DUP2 SWAP1 POP SWAP2 SWAP1 POP JUMP JUMPDEST PUSH2 0x18B DUP2 PUSH2 0x178 JUMP JUMPDEST DUP2 EQ PUSH2 0x196 JUMPI PUSH1 0x0 DUP1 REVERT JUMPDEST POP JUMP JUMPDEST PUSH1 0x0 DUP2 CALLDATALOAD SWAP1 POP PUSH2 0x1A8 DUP2 PUSH2 0x182 JUMP JUMPDEST SWAP3 SWAP2 POP POP JUMP JUMPDEST PUSH1 0x0 DUP2 ISZERO ISZERO SWAP1 POP SWAP2 SWAP1 POP JUMP JUMPDEST PUSH2 0x1C3 DUP2 PUSH2 0x1AE JUMP JUMPDEST DUP2 EQ PUSH2 0x1CE JUMPI PUSH1 0x0 DUP1 REVERT JUMPDEST POP JUMP JUMPDEST PUSH1 0x0 DUP2 CALLDATALOAD SWAP1 POP PUSH2 0x1E0 DUP2 PUSH2 0x1BA JUMP JUMPDEST SWAP3 SWAP2 POP POP JUMP JUMPDEST PUSH1 0x0 DUP1 PUSH1 0x0 DUP1 PUSH1 0x0 PUSH1 0xA0 DUP7 DUP9 SUB SLT ISZERO PUSH2 0x202 JUMPI PUSH2 0x201 PUSH2 0x110 JUMP JUMPDEST JUMPDEST PUSH1 0x0 PUSH2 0x210 DUP9 DUP3 DUP10 ADD PUSH2 0x163 JUMP JUMPDEST SWAP6 POP POP PUSH1 0x20 PUSH2 0x221 DUP9 DUP3 DUP10 ADD PUSH2 0x163 JUMP JUMPDEST SWAP5 POP POP PUSH1 0x40 PUSH2 0x232 DUP9 DUP3 DUP10 ADD PUSH2 0x163 JUMP JUMPDEST SWAP4 POP POP PUSH1 0x60 PUSH2 0x243 DUP9 DUP3 DUP10 ADD PUSH2 0x199 JUMP JUMPDEST SWAP3 POP POP PUSH1 0x80 PUSH2 0x254 DUP9 DUP3 DUP10 ADD PUSH2 0x1D1 JUMP JUMPDEST SWAP2 POP POP SWAP3 SWAP6 POP SWAP3 SWAP6 SWAP1 SWAP4 POP JUMP JUMPDEST PUSH1 0x0 DUP1 REVERT JUMPDEST PUSH1 0x0 DUP1 REVERT JUMPDEST PUSH1 0x0 DUP1 REVERT JUMPDEST PUSH1 0x0 DUP1 DUP4 PUSH1 0x1F DUP5 ADD SLT PUSH2 0x286 JUMPI PUSH2 0x285 PUSH2 0x261 JUMP JUMPDEST JUMPDEST DUP3 CALLDATALOAD SWAP1 POP PUSH8 0xFFFFFFFFFFFFFFFF DUP2 GT ISZERO PUSH2 0x2A3 JUMPI PUSH2 0x2A2 PUSH2 0x266 JUMP JUMPDEST JUMPDEST PUSH1 0x20 DUP4 ADD SWAP2 POP DUP4 PUSH1 0x20 DUP3 MUL DUP4 ADD GT ISZERO PUSH2 0x2BF JUMPI PUSH2 0x2BE PUSH2 0x26B JUMP JUMPDEST JUMPDEST SWAP3 POP SWAP3 SWAP1 POP JUMP JUMPDEST PUSH1 0x0 DUP1 DUP4 PUSH1 0x1F DUP5 ADD SLT PUSH2 0x2DC JUMPI PUSH2 0x2DB PUSH2 0x261 JUMP JUMPDEST JUMPDEST DUP3 CALLDATALOAD SWAP1 POP PUSH8 0xFFFFFFFFFFFFFFFF DUP2 GT ISZERO PUSH2 0x2F9 JUMPI PUSH2 0x2F8 PUSH2 0x266 JUMP JUMPDEST JUMPDEST PUSH1 0x20 DUP4 ADD SWAP2 POP DUP4 PUSH1 0x20 DUP3 MUL DUP4 ADD GT ISZERO PUSH2 0x315 JUMPI PUSH2 0x314 PUSH2 0x26B JUMP JUMPDEST JUMPDEST SWAP3 POP SWAP3 SWAP1 POP JUMP JUMPDEST PUSH1 0x0 DUP1 DUP4 PUSH1 0x1F DUP5 ADD SLT PUSH2 0x332 JUMPI PUSH2 0x331 PUSH2 0x261 JUMP JUMPDEST JUMPDEST DUP3 CALLDATALOAD SWAP1 POP PUSH8 0xFFFFFFFFFFFFFFFF DUP2 GT ISZERO PUSH2 0x34F JUMPI PUSH2 0x34E PUSH2 0x266 JUMP JUMPDEST JUMPDEST PUSH1 0x20 DUP4 ADD SWAP2 POP DUP4 PUSH1 0x1 DUP3 MUL DUP4 ADD GT ISZERO PUSH2 0x36B JUMPI PUSH2 0x36A PUSH2 0x26B JUMP JUMPDEST JUMPDEST SWAP3 POP SWAP3 SWAP1 POP JUMP JUMPDEST PUSH1 0x0 PUSH2 0xFFFF DUP3 AND SWAP1 POP SWAP2 SWAP1 POP JUMP JUMPDEST PUSH2 0x389 DUP2 PUSH2 0x372 JUMP JUMPDEST DUP2 EQ PUSH2 0x394 JUMPI PUSH1 0x0 DUP1 REVERT JUMPDEST POP JUMP JUMPDEST PUSH1 0x0 DUP2 CALLDATALOAD SWAP1 POP PUSH2 0x3A6 DUP2 PUSH2 0x380 JUMP JUMPDEST SWAP3 SWAP2 POP POP JUMP JUMPDEST PUSH1 0x0 DUP1 PUSH1 0x0 DUP1 PUSH1 0x0 DUP1 PUSH1 0x0 DUP1 PUSH1 0x0 DUP1 PUSH1 0x0 PUSH1 0xE0 DUP13 DUP15 SUB SLT ISZERO PUSH2 0x3D1 JUMPI PUSH2 0x3D0 PUSH2 0x110 JUMP JUMPDEST JUMPDEST PUSH1 0x0 PUSH2 0x3DF DUP15 DUP3 DUP16 ADD PUSH2 0x163 JUMP JUMPDEST SWAP12 POP POP PUSH1 0x20 DUP13 ADD CALLDATALOAD PUSH8 0xFFFFFFFFFFFFFFFF DUP2 GT ISZERO PUSH2 0x400 JUMPI PUSH2 0x3FF PUSH2 0x115 JUMP JUMPDEST JUMPDEST PUSH2 0x40C DUP15 DUP3 DUP16 ADD PUSH2 0x270 JUMP JUMPDEST SWAP11 POP SWAP11 POP POP PUSH1 0x40 DUP13 ADD CALLDATALOAD PUSH8 0xFFFFFFFFFFFFFFFF DUP2 GT ISZERO PUSH2 0x42F JUMPI PUSH2 0x42E PUSH2 0x115 JUMP JUMPDEST JUMPDEST PUSH2 0x43B DUP15 DUP3 DUP16 ADD PUSH2 0x2C6 JUMP JUMPDEST SWAP9 POP SWAP9 POP POP PUSH1 0x60 DUP13 ADD CALLDATALOAD PUSH8 0xFFFFFFFFFFFFFFFF DUP2 GT ISZERO PUSH2 0x45E JUMPI PUSH2 0x45D PUSH2 0x115 JUMP JUMPDEST JUMPDEST PUSH2 0x46A DUP15 DUP3 DUP16 ADD PUSH2 0x2C6 JUMP JUMPDEST SWAP7 POP SWAP7 POP POP PUSH1 0x80 PUSH2 0x47D DUP15 DUP3 DUP16 ADD PUSH2 0x163 JUMP JUMPDEST SWAP5 POP POP PUSH1 0xA0 DUP13 ADD CALLDATALOAD PUSH8 0xFFFFFFFFFFFFFFFF DUP2 GT ISZERO PUSH2 0x49E JUMPI PUSH2 0x49D PUSH2 0x115 JUMP JUMPDEST JUMPDEST PUSH2 0x4AA DUP15 DUP3 DUP16 ADD PUSH2 0x31C JUMP JUMPDEST SWAP4 POP SWAP4 POP POP PUSH1 0xC0 PUSH2 0x4BD DUP15 DUP3 DUP16 ADD PUSH2 0x397 JUMP JUMPDEST SWAP2 POP POP SWAP3 SWAP6 SWAP9 SWAP12 POP SWAP3 SWAP6 SWAP9 SWAP12 SWAP1 SWAP4 SWAP7 SWAP10 POP JUMP JUMPDEST PUSH2 0x4D9 DUP2 PUSH2 0x13A JUMP JUMPDEST DUP3 MSTORE POP POP JUMP JUMPDEST PUSH2 0x4E8 DUP2 PUSH2 0x178 JUMP JUMPDEST DUP3 MSTORE POP POP JUMP JUMPDEST PUSH2 0x4F7 DUP2 PUSH2 0x1AE JUMP JUMPDEST DUP3 MSTORE POP POP JUMP JUMPDEST PUSH1 0x0 PUSH1 0xA0 DUP3 ADD SWAP1 POP PUSH2 0x512 PUSH1 0x0 DUP4 ADD DUP9 PUSH2 0x4D0 JUMP JUMPDEST PUSH2 0x51F PUSH1 0x20 DUP4 ADD DUP8 PUSH2 0x4D0 JUMP JUMPDEST PUSH2 0x52C PUSH1 0x40 DUP4 ADD DUP7 PUSH2 0x4D0 JUMP JUMPDEST PUSH2 0x539 PUSH1 0x60 DUP4 ADD DUP6 PUSH2 0x4DF JUMP JUMPDEST PUSH2 0x546 PUSH1 0x80 DUP4 ADD DUP5 PUSH2 0x4EE JUMP JUMPDEST SWAP7 SWAP6 POP POP POP POP POP POP JUMP JUMPDEST PUSH1 0x0 DUP3 DUP3 MSTORE PUSH1 0x20 DUP3 ADD SWAP1 POP SWAP3 SWAP2 POP POP JUMP JUMPDEST PUSH1 0x0 DUP2 SWAP1 POP SWAP2 SWAP1 POP JUMP JUMPDEST PUSH2 0x574 DUP2 PUSH2 0x13A JUMP JUMPDEST DUP3 MSTORE POP POP JUMP JUMPDEST PUSH1 0x0 PUSH2 0x586 DUP4 DUP4 PUSH2 0x56B JUMP JUMPDEST PUSH1 0x20 DUP4 ADD SWAP1 POP SWAP3 SWAP2 POP POP JUMP JUMPDEST PUSH1 0x0 PUSH2 0x5A1 PUSH1 0x20 DUP5 ADD DUP5 PUSH2 0x163 JUMP JUMPDEST SWAP1 POP SWAP3 SWAP2 POP POP JUMP JUMPDEST PUSH1 0x0 PUSH1 0x20 DUP3 ADD SWAP1 POP SWAP2 SWAP1 POP JUMP JUMPDEST PUSH1 0x0 PUSH2 0x5C2 DUP4 DUP6 PUSH2 0x550 JUMP JUMPDEST SWAP4 POP PUSH2 0x5CD DUP3 PUSH2 0x561 JUMP JUMPDEST DUP1 PUSH1 0x0 JUMPDEST DUP6 DUP2 LT ISZERO PUSH2 0x606 JUMPI PUSH2 0x5E3 DUP3 DUP5 PUSH2 0x592 JUMP JUMPDEST PUSH2 0x5ED DUP9 DUP3 PUSH2 0x57A JUMP JUMPDEST SWAP8 POP PUSH2 0x5F8 DUP4 PUSH2 0x5A9 JUMP JUMPDEST SWAP3 POP POP PUSH1 0x1 DUP2 ADD SWAP1 POP PUSH2 0x5D1 JUMP JUMPDEST POP DUP6 SWAP3 POP POP POP SWAP4 SWAP3 POP POP POP JUMP JUMPDEST PUSH1 0x0 DUP3 DUP3 MSTORE PUSH1 0x20 DUP3 ADD SWAP1 POP SWAP3 SWAP2 POP POP JUMP JUMPDEST PUSH1 0x0 DUP1 REVERT JUMPDEST DUP3 DUP2 DUP4 CALLDATACOPY POP POP POP JUMP JUMPDEST PUSH1 0x0 PUSH2 0x63E DUP4 DUP6 PUSH2 0x613 JUMP JUMPDEST SWAP4 POP PUSH32 0x7FFFFFFFFFFFFFFFFFFFFFFFFFFFFFFFFFFFFFFFFFFFFFFFFFFFFFFFFFFFFFF DUP4 GT ISZERO PUSH2 0x671 JUMPI PUSH2 0x670 PUSH2 0x624 JUMP JUMPDEST JUMPDEST PUSH1 0x20 DUP4 MUL SWAP3 POP PUSH2 0x682 DUP4 DUP6 DUP5 PUSH2 0x629 JUMP JUMPDEST DUP3 DUP5 ADD SWAP1 POP SWAP4 SWAP3 POP POP POP JUMP JUMPDEST PUSH1 0x0 DUP3 DUP3 MSTORE PUSH1 0x20 DUP3 ADD SWAP1 POP SWAP3 SWAP2 POP POP JUMP JUMPDEST DUP3 DUP2 DUP4 CALLDATACOPY PUSH1 0x0 DUP4 DUP4 ADD MSTORE POP POP POP JUMP JUMPDEST PUSH1 0x0 PUSH1 0x1F NOT PUSH1 0x1F DUP4 ADD AND SWAP1 POP SWAP2 SWAP1 POP JUMP JUMPDEST PUSH1 0x0 PUSH2 0x6CB DUP4 DUP6 PUSH2 0x68E JUMP JUMPDEST SWAP4 POP PUSH2 0x6D8 DUP4 DUP6 DUP5 PUSH2 0x69F JUMP JUMPDEST PUSH2 0x6E1 DUP4 PUSH2 0x6AE JUMP JUMPDEST DUP5 ADD SWAP1 POP SWAP4 SWAP3 POP POP POP JUMP JUMPDEST PUSH2 0x6F5 DUP2 PUSH2 0x372 JUMP JUMPDEST DUP3 MSTORE POP POP JUMP JUMPDEST PUSH1 0x0 PUSH1 0xE0 DUP3 ADD SWAP1 POP PUSH2 0x710 PUSH1 0x0 DUP4 ADD DUP15 PUSH2 0x4D0 JUMP JUMPDEST DUP2 DUP2 SUB PUSH1 0x20 DUP4 ADD MSTORE PUSH2 0x723 DUP2 DUP13 DUP15 PUSH2 0x5B6 JUMP JUMPDEST SWAP1 POP DUP2 DUP2 SUB PUSH1 0x40 DUP4 ADD MSTORE PUSH2 0x738 DUP2 DUP11 DUP13 PUSH2 0x632 JUMP JUMPDEST SWAP1 POP DUP2 DUP2 SUB PUSH1 0x60 DUP4 ADD MSTORE PUSH2 0x74D DUP2 DUP9 DUP11 PUSH2 0x632 JUMP JUMPDEST SWAP1 POP PUSH2 0x75C PUSH1 0x80 DUP4 ADD DUP8 PUSH2 0x4D0 JUMP JUMPDEST DUP2 DUP2 SUB PUSH1 0xA0 DUP4 ADD MSTORE PUSH2 0x76F DUP2 DUP6 DUP8 PUSH2 0x6BF JUMP JUMPDEST SWAP1 POP PUSH2 0x77E PUSH1 0xC0 DUP4 ADD DUP5 PUSH2 0x6EC JUMP JUMPDEST SWAP13 SWAP12 POP POP POP POP POP POP POP POP POP POP POP POP JUMP INVALID LOG2 PUSH5 0x6970667358 0x22 SLT KECCAK256 DUP11 0xA5 0xCA XOR 0xBE CALLVALUE JUMP 0xC8 CHAINID SIGNEXTEND 0xBF 0x49 PUSH29 0x3586F3C2B85A9D5C9B3BB138A5936039B703DA64736F6C634300081400 CALLER "},"methodIdentifiers":{"flashLoan(address,address[],uint256[],uint256[],address,bytes,uint16)":"ab9c4b5d","liquidationCall(address,address,address,uint256,bool)":"00a718a9"}}}}}