{
  "_format": "hh-sol-artifact-1",
  "contractName": "MockPool",
  "sourceName": "contracts/MockAave.sol",
  "abi": [
    {
      "anonymous": false,
      "inputs": [
        {
          "indexed": false,
          "internalType": "address",
          "name": "receiver",
          "type": "address"
        },
        {
          "indexed": false,
          "internalType": "address[]",
          "name": "assets",
          "type": "address[]"
        },
        {
          "indexed": false,
          "internalType": "uint256[]",
          "name": "amounts",
          "type": "uint256[]"
        },
        {
          "indexed": false,
          "internalType": "uint256[]",
          "name": "modes",
          "type": "uint256[]"
        },
        {
          "indexed": false,
          "internalType": "address",
          "name": "onBehalfOf",
          "type": "address"
        },
        {
          "indexed": false,
          "internalType": "bytes",
          "name": "params",
          "type": "bytes"
        },
        {
          "indexed": false,
          "internalType": "uint16",
          "name": "referralCode",
          "type": "uint16"
        }
      ],
      "name": "FlashLoan",
      "type": "event"
    },
    {
      "anonymous": false,
      "inputs": [
        {
          "indexed": false,
          "internalType": "address",
          "name": "collateralAsset",
          "type": "address"
        },
        {
          "indexed": false,
          "internalType": "address",
          "name": "debtAsset",
          "type": "address"
        },
        {
          "indexed": false,
          "internalType": "address",
          "name": "user",
          "type": "address"
        },
        {
          "indexed": false,
          "internalType": "uint256",
          "name": "debtToCover",
          "type": "uint256"
        },
        {
          "indexed": false,
          "internalType": "bool",
          "name": "receiveAToken",
          "type": "bool"
        }
      ],
      "name": "LiquidationCall",
      "type": "event"
    },
    {
      "inputs": [
        {
          "internalType": "address",
          "name": "receiverAddress",
          "type": "address"
        },
        {
          "internalType": "address[]",
          "name": "assets",
          "type": "address[]"
        },
        {
          "internalType": "uint256[]",
          "name": "amounts",
          "type": "uint256[]"
        },
        {
          "internalType": "uint256[]",
          "name": "modes",
          "type": "uint256[]"
        },
        {
          "internalType": "address",
          "name": "onBehalfOf",
          "type": "address"
        },
        {
          "internalType": "bytes",
          "name": "params",
          "type": "bytes"
        },
        {
          "internalType": "uint16",
          "name": "referralCode",
          "type": "uint16"
        }
      ],
      "name": "flashLoan",
      "outputs": [],
      "stateMutability": "nonpayable",
      "type": "function"
    },
    {
      "inputs": [
        {
          "internalType": "address",
          "name": "collateralAsset",
          "type": "address"
        },
        {
          "internalType": "address",
          "name": "debtAsset",
          "type": "address"
        },
        {
          "internalType": "address",
          "name": "user",
          "type": "address"
        },
        {
          "internalType": "uint256",
          "name": "debtToCover",
          "type": "uint256"
        },
        {
          "internalType": "bool",
          "name": "receiveAToken",
          "type": "bool"
        }
      ],
      "name": "liquidationCall",
      "outputs": [],
      "stateMutability": "nonpayable",
      "type": "function"
    }
  ],
  "bytecode": "0x608060405234801561001057600080fd5b506107c4806100206000396000f3fe608060405234801561001057600080fd5b50600436106100355760003560e01c8062a718a91461003a578063ab9c4b5d14610056575b600080fd5b610054600480360381019061004f91906101e6565b610072565b005b610070600480360381019061006b91906103ac565b6100b8565b005b7fccd0ed30f4a4a64087434b2610b1060b5d57181802fbd5ceea2a18b7ee2ae3b485858585856040516100a99594939291906104fd565b60405180910390a15050505050565b7f7043f435e601d5744e00080c1566a1ab27107bf5222d48f979f70db8c7d33c978b8b8b8b8b8b8b8b8b8b8b6040516100fb9b9a999897969594939291906106fb565b60405180910390a15050505050505050505050565b600080fd5b600080fd5b600073ffffffffffffffffffffffffffffffffffffffff82169050919050565b60006101458261011a565b9050919050565b6101558161013a565b811461016057600080fd5b50565b6000813590506101728161014c565b92915050565b6000819050919050565b61018b81610178565b811461019657600080fd5b50565b6000813590506101a881610182565b92915050565b60008115159050919050565b6101c3816101ae565b81146101ce57600080fd5b50565b6000813590506101e0816101ba565b92915050565b600080600080600060a0868803121561020257610201610110565b5b600061021088828901610163565b955050602061022188828901610163565b945050604061023288828901610163565b935050606061024388828901610199565b9250506080610254888289016101d1565b9150509295509295909350565b600080fd5b600080fd5b600080fd5b60008083601f84011261028657610285610261565b5b8235905067ffffffffffffffff8111156102a3576102a2610266565b5b6020830191508360208202830111156102bf576102be61026b565b5b9250929050565b60008083601f8401126102dc576102db610261565b5b8235905067ffffffffffffffff8111156102f9576102f8610266565b5b6020830191508360208202830111156103155761031461026b565b5b9250929050565b60008083601f84011261033257610331610261565b5b8235905067ffffffffffffffff81111561034f5761034e610266565b5b60208301915083600182028301111561036b5761036a61026b565b5b9250929050565b600061ffff82169050919050565b61038981610372565b811461039457600080fd5b50565b6000813590506103a681610380565b92915050565b600080600080600080600080600080600060e08c8e0312156103d1576103d0610110565b5b60006103df8e828f01610163565b9b505060208c013567ffffffffffffffff811115610400576103ff610115565b5b61040c8e828f01610270565b9a509a505060408c013567ffffffffffffffff81111561042f5761042e610115565b5b61043b8e828f016102c6565b985098505060608c013567ffffffffffffffff81111561045e5761045d610115565b5b61046a8e828f016102c6565b9650965050608061047d8e828f01610163565b94505060a08c013567ffffffffffffffff81111561049e5761049d610115565b5b6104aa8e828f0161031c565b935093505060c06104bd8e828f01610397565b9150509295989b509295989b9093969950565b6104d98161013a565b82525050565b6104e881610178565b82525050565b6104f7816101ae565b82525050565b600060a08201905061051260008301886104d0565b61051f60208301876104d0565b61052c60408301866104d0565b61053960608301856104df565b61054660808301846104ee565b9695505050505050565b600082825260208201905092915050565b6000819050919050565b6105748161013a565b82525050565b6000610586838361056b565b60208301905092915050565b60006105a16020840184610163565b905092915050565b6000602082019050919050565b60006105c28385610550565b93506105cd82610561565b8060005b85811015610606576105e38284610592565b6105ed888261057a565b97506105f8836105a9565b9250506001810190506105d1565b5085925050509392505050565b600082825260208201905092915050565b600080fd5b82818337505050565b600061063e8385610613565b93507f07ffffffffffffffffffffffffffffffffffffffffffffffffffffffffffffff83111561067157610670610624565b5b602083029250610682838584610629565b82840190509392505050565b600082825260208201905092915050565b82818337600083830152505050565b6000601f19601f8301169050919050565b60006106cb838561068e565b93506106d883858461069f565b6106e1836106ae565b840190509392505050565b6106f581610372565b82525050565b600060e082019050610710600083018e6104d0565b8181036020830152610723818c8e6105b6565b90508181036040830152610738818a8c610632565b9050818103606083015261074d81888a610632565b905061075c60808301876104d0565b81810360a083015261076f8185876106bf565b905061077e60c08301846106ec565b9c9b50505050505050505050505056fea26469706673582212208aa5ca18be3456c8460bbf497c3586f3c2b85a9d5c9b3bb138a5936039b703da64736f6c63430008140033",
  "linkReferences": {},
  "deployedLinkReferences": {}
}