{
  "_format": "hh-sol-artifact-1",
  "contractName": "Liquidator",
  "sourceName": "contracts/Liquidator.sol",
  "abi": [
    {
      "inputs": [
        {
          "internalType": "address",
          "name": "_addressProvider",
          "type": "address"
        }
      ],
      "stateMutability": "nonpayable",
      "type": "constructor"
    },
    {
      "inputs": [
        {
          "internalType": "address",
          "name": "owner",
          "type": "address"
        }
      ],
      "name": "OwnableInvalidOwner",
      "type": "error"
    },
    {
      "inputs": [
        {
          "internalType": "address",
          "name": "account",
          "type": "address"
        }
      ],
      "name": "OwnableUnauthorizedAccount",
      "type": "error"
    },
    {
      "anonymous": false,
      "inputs": [
        {
          "indexed": true,
          "internalType": "address",
          "name": "asset",
          "type": "address"
        },
        {
          "indexed": false,
          "internalType": "uint256",
          "name": "amount",
          "type": "uint256"
        },
        {
          "indexed": false,
          "internalType": "uint256",
          "name": "premium",
          "type": "uint256"
        }
      ],
      "name": "FlashLoanExecuted",
      "type": "event"
    },
    {
      "anonymous": false,
      "inputs": [
        {
          "indexed": true,
          "internalType": "address",
          "name": "user",
          "type": "address"
        },
        {
          "indexed": false,
          "internalType": "uint256",
          "name": "debtCovered",
          "type": "uint256"
        },
        {
          "indexed": false,
          "internalType": "uint256",
          "name": "liquidationBonus",
          "type": "uint256"
        }
      ],
      "name": "LiquidationExecuted",
      "type": "event"
    },
    {
      "anonymous": false,
      "inputs": [
        {
          "indexed": true,
          "internalType": "address",
          "name": "previousOwner",
          "type": "address"
        },
        {
          "indexed": true,
          "internalType": "address",
          "name": "newOwner",
          "type": "address"
        }
      ],
      "name": "OwnershipTransferred",
      "type": "event"
    },
    {
      "inputs": [],
      "name": "ADDRESSES_PROVIDER",
      "outputs": [
        {
          "internalType": "contract IPoolAddressesProvider",
          "name": "",
          "type": "address"
        }
      ],
      "stateMutability": "view",
      "type": "function"
    },
    {
      "inputs": [],
      "name": "POOL",
      "outputs": [
        {
          "internalType": "contract IPool",
          "name": "",
          "type": "address"
        }
      ],
      "stateMutability": "view",
      "type": "function"
    },
    {
      "inputs": [
        {
          "internalType": "address",
          "name": "asset",
          "type": "address"
        },
        {
          "internalType": "uint256",
          "name": "amount",
          "type": "uint256"
        },
        {
          "internalType": "address",
          "name": "collateralAsset",
          "type": "address"
        },
        {
          "internalType": "address",
          "name": "debtAsset",
          "type": "address"
        },
        {
          "internalType": "address",
          "name": "user",
          "type": "address"
        },
        {
          "internalType": "uint256",
          "name": "debtToCover",
          "type": "uint256"
        },
        {
          "internalType": "bool",
          "name": "receiveAToken",
          "type": "bool"
        }
      ],
      "name": "executeFlashLoan",
      "outputs": [],
      "stateMutability": "nonpayable",
      "type": "function"
    },
    {
      "inputs": [
        {
          "internalType": "address[]",
          "name": "assets",
          "type": "address[]"
        },
        {
          "internalType": "uint256[]",
          "name": "amounts",
          "type": "uint256[]"
        },
        {
          "internalType": "uint256[]",
          "name": "premiums",
          "type": "uint256[]"
        },
        {
          "internalType": "address",
          "name": "initiator",
          "type": "address"
        },
        {
          "internalType": "bytes",
          "name": "params",
          "type": "bytes"
        }
      ],
      "name": "executeOperation",
      "outputs": [
        {
          "internalType": "bool",
          "name": "",
          "type": "bool"
        }
      ],
      "stateMutability": "nonpayable",
      "type": "function"
    },
    {
      "inputs": [],
      "name": "owner",
      "outputs": [
        {
          "internalType": "address",
          "name": "",
          "type": "address"
        }
      ],
      "stateMutability": "view",
      "type": "function"
    },
    {
      "inputs": [],
      "name": "renounceOwnership",
      "outputs": [],
      "stateMutability": "nonpayable",
      "type": "function"
    },
    {
      "inputs": [
        {
          "internalType": "address",
          "name": "newOwner",
          "type": "address"
        }
      ],
      "name": "transferOwnership",
      "outputs": [],
      "stateMutability": "nonpayable",
      "type": "function"
    },
    {
      "inputs": [],
      "name": "withdrawETH",
      "outputs": [],
      "stateMutability": "nonpayable",
      "type": "function"
    },
    {
      "inputs": [
        {
          "internalType": "address",
          "name": "token",
          "type": "address"
        }
      ],
      "name": "withdrawProfit",
      "outputs": [],
      "stateMutability": "nonpayable",
      "type": "function"
    },
    {
      "stateMutability": "payable",
      "type": "receive"
    }
  ],
  "bytecode": "0x60c06040523480156200001157600080fd5b5060405162001e2338038062001e238339818101604052810190620000379190620002cd565b33600073ffffffffffffffffffffffffffffffffffffffff168173ffffffffffffffffffffffffffffffffffffffff1603620000ad5760006040517f1e4fbdf7000000000000000000000000000000000000000000000000000000008152600401620000a4919062000310565b60405180910390fd5b620000be816200019f60201b60201c565b508073ffffffffffffffffffffffffffffffffffffffff1660808173ffffffffffffffffffffffffffffffffffffffff16815250508073ffffffffffffffffffffffffffffffffffffffff1663026b1d5f6040518163ffffffff1660e01b8152600401602060405180830381865afa1580156200013f573d6000803e3d6000fd5b505050506040513d601f19601f82011682018060405250810190620001659190620002cd565b73ffffffffffffffffffffffffffffffffffffffff1660a08173ffffffffffffffffffffffffffffffffffffffff1681525050506200032d565b60008060009054906101000a900473ffffffffffffffffffffffffffffffffffffffff169050816000806101000a81548173ffffffffffffffffffffffffffffffffffffffff021916908373ffffffffffffffffffffffffffffffffffffffff1602179055508173ffffffffffffffffffffffffffffffffffffffff168173ffffffffffffffffffffffffffffffffffffffff167f8be0079c531659141344cd1fd0a4f28419497f9722a3daafe3b4186f6b6457e060405160405180910390a35050565b600080fd5b600073ffffffffffffffffffffffffffffffffffffffff82169050919050565b6000620002958262000268565b9050919050565b620002a78162000288565b8114620002b357600080fd5b50565b600081519050620002c7816200029c565b92915050565b600060208284031215620002e657620002e562000263565b5b6000620002f684828501620002b6565b91505092915050565b6200030a8162000288565b82525050565b6000602082019050620003276000830184620002ff565b92915050565b60805160a051611aad620003766000396000818161058d015281816106470152818161069601528181610757015281816107de01526109d4015260006101ff0152611aad6000f3fe60806040526004361061008a5760003560e01c80637535d246116100595780637535d2461461012a5780638da5cb5b14610155578063920f5c8414610180578063e086e5ec146101bd578063f2fde38b146101d457610091565b80630542975c1461009657806324e26241146100c15780632bfc20c2146100ea578063715018a61461011357610091565b3661009157005b600080fd5b3480156100a257600080fd5b506100ab6101fd565b6040516100b89190610e66565b60405180910390f35b3480156100cd57600080fd5b506100e860048036038101906100e39190610ed3565b610221565b005b3480156100f657600080fd5b50610111600480360381019061010c9190610f6e565b610374565b005b34801561011f57600080fd5b50610128610631565b005b34801561013657600080fd5b5061013f610645565b60405161014c9190611031565b60405180910390f35b34801561016157600080fd5b5061016a610669565b604051610177919061105b565b60405180910390f35b34801561018c57600080fd5b506101a760048036038101906101a29190611187565b610692565b6040516101b49190611292565b60405180910390f35b3480156101c957600080fd5b506101d2610b6d565b005b3480156101e057600080fd5b506101fb60048036038101906101f69190610ed3565b610c0e565b005b7f000000000000000000000000000000000000000000000000000000000000000081565b610229610c94565b60008173ffffffffffffffffffffffffffffffffffffffff166370a08231306040518263ffffffff1660e01b8152600401610264919061105b565b602060405180830381865afa158015610281573d6000803e3d6000fd5b505050506040513d601f19601f820116820180604052508101906102a591906112c2565b9050600081116102ea576040517f08c379a00000000000000000000000000000000000000000000000000000000081526004016102e19061134c565b60405180910390fd5b8173ffffffffffffffffffffffffffffffffffffffff1663a9059cbb61030e610669565b836040518363ffffffff1660e01b815260040161032c92919061137b565b6020604051808303816000875af115801561034b573d6000803e3d6000fd5b505050506040513d601f19601f8201168201806040525081019061036f91906113b9565b505050565b61037c610c94565b6000600167ffffffffffffffff811115610399576103986113e6565b5b6040519080825280602002602001820160405280156103c75781602001602082028036833780820191505090505b50905087816000815181106103df576103de611415565b5b602002602001019073ffffffffffffffffffffffffffffffffffffffff16908173ffffffffffffffffffffffffffffffffffffffff16815250506000600167ffffffffffffffff811115610436576104356113e6565b5b6040519080825280602002602001820160405280156104645781602001602082028036833780820191505090505b509050878160008151811061047c5761047b611415565b5b6020026020010181815250506000600167ffffffffffffffff8111156104a5576104a46113e6565b5b6040519080825280602002602001820160405280156104d35781602001602082028036833780820191505090505b5090506000816000815181106104ec576104eb611415565b5b60200260200101818152505060006040518060a001604052808a73ffffffffffffffffffffffffffffffffffffffff1681526020018973ffffffffffffffffffffffffffffffffffffffff1681526020018873ffffffffffffffffffffffffffffffffffffffff168152602001878152602001861515815250905060008160405160200161057a91906114d9565b60405160208183030381529060405290507f000000000000000000000000000000000000000000000000000000000000000073ffffffffffffffffffffffffffffffffffffffff1663ab9c4b5d30878787308760006040518863ffffffff1660e01b81526004016105f1979695949392919061172b565b600060405180830381600087803b15801561060b57600080fd5b505af115801561061f573d6000803e3d6000fd5b50505050505050505050505050505050565b610639610c94565b6106436000610d1b565b565b7f000000000000000000000000000000000000000000000000000000000000000081565b60008060009054906101000a900473ffffffffffffffffffffffffffffffffffffffff16905090565b60007f000000000000000000000000000000000000000000000000000000000000000073ffffffffffffffffffffffffffffffffffffffff163373ffffffffffffffffffffffffffffffffffffffff1614610722576040517f08c379a000000000000000000000000000000000000000000000000000000000815260040161071990611802565b60405180910390fd5b6000838381019061073391906118ff565b9050806020015173ffffffffffffffffffffffffffffffffffffffff1663095ea7b37f000000000000000000000000000000000000000000000000000000000000000083606001516040518363ffffffff1660e01b815260040161079892919061137b565b6020604051808303816000875af11580156107b7573d6000803e3d6000fd5b505050506040513d601f19601f820116820180604052508101906107db91906113b9565b507f000000000000000000000000000000000000000000000000000000000000000073ffffffffffffffffffffffffffffffffffffffff1662a718a9826000015183602001518460400151856060015186608001516040518663ffffffff1660e01b815260040161085095949392919061192c565b600060405180830381600087803b15801561086a57600080fd5b505af115801561087e573d6000803e3d6000fd5b505050506000816000015173ffffffffffffffffffffffffffffffffffffffff166370a08231306040518263ffffffff1660e01b81526004016108c1919061105b565b602060405180830381865afa1580156108de573d6000803e3d6000fd5b505050506040513d601f19601f8201168201806040525081019061090291906112c2565b90508b8b600081811061091857610917611415565b5b905060200201602081019061092d9190610ed3565b73ffffffffffffffffffffffffffffffffffffffff16826000015150506000888860008181106109605761095f611415565b5b905060200201358b8b600081811061097b5761097a611415565b5b9050602002013561098c91906119ae565b90508c8c60008181106109a2576109a1611415565b5b90506020020160208101906109b79190610ed3565b73ffffffffffffffffffffffffffffffffffffffff1663095ea7b37f0000000000000000000000000000000000000000000000000000000000000000836040518363ffffffff1660e01b8152600401610a1192919061137b565b6020604051808303816000875af1158015610a30573d6000803e3d6000fd5b505050506040513d601f19601f82011682018060405250810190610a5491906113b9565b508c8c6000818110610a6957610a68611415565b5b9050602002016020810190610a7e9190610ed3565b73ffffffffffffffffffffffffffffffffffffffff167f61268d74931c41c9775dffb6169a5208aab1d09cb2eb6aabe8b97162801e5dfa8c8c6000818110610ac957610ac8611415565b5b905060200201358b8b6000818110610ae457610ae3611415565b5b90506020020135604051610af99291906119e2565b60405180910390a2826040015173ffffffffffffffffffffffffffffffffffffffff167fbbc2c1f309235e173f9135b1b09af3d1f27d9d3ca6d4c62a019c87d4c03eedb3846060015184604051610b519291906119e2565b60405180910390a2600193505050509998505050505050505050565b610b75610c94565b600047905060008111610bbd576040517f08c379a0000000000000000000000000000000000000000000000000000000008152600401610bb490611a57565b60405180910390fd5b610bc5610669565b73ffffffffffffffffffffffffffffffffffffffff166108fc829081150290604051600060405180830381858888f19350505050158015610c0a573d6000803e3d6000fd5b5050565b610c16610c94565b600073ffffffffffffffffffffffffffffffffffffffff168173ffffffffffffffffffffffffffffffffffffffff1603610c885760006040517f1e4fbdf7000000000000000000000000000000000000000000000000000000008152600401610c7f919061105b565b60405180910390fd5b610c9181610d1b565b50565b610c9c610ddf565b73ffffffffffffffffffffffffffffffffffffffff16610cba610669565b73ffffffffffffffffffffffffffffffffffffffff1614610d1957610cdd610ddf565b6040517f118cdaa7000000000000000000000000000000000000000000000000000000008152600401610d10919061105b565b60405180910390fd5b565b60008060009054906101000a900473ffffffffffffffffffffffffffffffffffffffff169050816000806101000a81548173ffffffffffffffffffffffffffffffffffffffff021916908373ffffffffffffffffffffffffffffffffffffffff1602179055508173ffffffffffffffffffffffffffffffffffffffff168173ffffffffffffffffffffffffffffffffffffffff167f8be0079c531659141344cd1fd0a4f28419497f9722a3daafe3b4186f6b6457e060405160405180910390a35050565b600033905090565b600073ffffffffffffffffffffffffffffffffffffffff82169050919050565b6000819050919050565b6000610e2c610e27610e2284610de7565b610e07565b610de7565b9050919050565b6000610e3e82610e11565b9050919050565b6000610e5082610e33565b9050919050565b610e6081610e45565b82525050565b6000602082019050610e7b6000830184610e57565b92915050565b6000604051905090565b600080fd5b600080fd5b6000610ea082610de7565b9050919050565b610eb081610e95565b8114610ebb57600080fd5b50565b600081359050610ecd81610ea7565b92915050565b600060208284031215610ee957610ee8610e8b565b5b6000610ef784828501610ebe565b91505092915050565b6000819050919050565b610f1381610f00565b8114610f1e57600080fd5b50565b600081359050610f3081610f0a565b92915050565b60008115159050919050565b610f4b81610f36565b8114610f5657600080fd5b50565b600081359050610f6881610f42565b92915050565b600080600080600080600060e0888a031215610f8d57610f8c610e8b565b5b6000610f9b8a828b01610ebe565b9750506020610fac8a828b01610f21565b9650506040610fbd8a828b01610ebe565b9550506060610fce8a828b01610ebe565b9450506080610fdf8a828b01610ebe565b93505060a0610ff08a828b01610f21565b92505060c06110018a828b01610f59565b91505092959891949750929550565b600061101b82610e33565b9050919050565b61102b81611010565b82525050565b60006020820190506110466000830184611022565b92915050565b61105581610e95565b82525050565b6000602082019050611070600083018461104c565b92915050565b600080fd5b600080fd5b600080fd5b60008083601f84011261109b5761109a611076565b5b8235905067ffffffffffffffff8111156110b8576110b761107b565b5b6020830191508360208202830111156110d4576110d3611080565b5b9250929050565b60008083601f8401126110f1576110f0611076565b5b8235905067ffffffffffffffff81111561110e5761110d61107b565b5b60208301915083602082028301111561112a57611129611080565b5b9250929050565b60008083601f84011261114757611146611076565b5b8235905067ffffffffffffffff8111156111645761116361107b565b5b6020830191508360018202830111156111805761117f611080565b5b9250929050565b600080600080600080600080600060a08a8c0312156111a9576111a8610e8b565b5b60008a013567ffffffffffffffff8111156111c7576111c6610e90565b5b6111d38c828d01611085565b995099505060208a013567ffffffffffffffff8111156111f6576111f5610e90565b5b6112028c828d016110db565b975097505060408a013567ffffffffffffffff81111561122557611224610e90565b5b6112318c828d016110db565b955095505060606112448c828d01610ebe565b93505060808a013567ffffffffffffffff81111561126557611264610e90565b5b6112718c828d01611131565b92509250509295985092959850929598565b61128c81610f36565b82525050565b60006020820190506112a76000830184611283565b92915050565b6000815190506112bc81610f0a565b92915050565b6000602082840312156112d8576112d7610e8b565b5b60006112e6848285016112ad565b91505092915050565b600082825260208201905092915050565b7f4e6f2070726f66697420746f2077697468647261770000000000000000000000600082015250565b60006113366015836112ef565b915061134182611300565b602082019050919050565b6000602082019050818103600083015261136581611329565b9050919050565b61137581610f00565b82525050565b6000604082019050611390600083018561104c565b61139d602083018461136c565b9392505050565b6000815190506113b381610f42565b92915050565b6000602082840312156113cf576113ce610e8b565b5b60006113dd848285016113a4565b91505092915050565b7f4e487b7100000000000000000000000000000000000000000000000000000000600052604160045260246000fd5b7f4e487b7100000000000000000000000000000000000000000000000000000000600052603260045260246000fd5b61144d81610e95565b82525050565b61145c81610f00565b82525050565b61146b81610f36565b82525050565b60a0820160008201516114876000850182611444565b50602082015161149a6020850182611444565b5060408201516114ad6040850182611444565b5060608201516114c06060850182611453565b5060808201516114d36080850182611462565b50505050565b600060a0820190506114ee6000830184611471565b92915050565b600081519050919050565b600082825260208201905092915050565b6000819050602082019050919050565b600061152c8383611444565b60208301905092915050565b6000602082019050919050565b6000611550826114f4565b61155a81856114ff565b935061156583611510565b8060005b8381101561159657815161157d8882611520565b975061158883611538565b925050600181019050611569565b5085935050505092915050565b600081519050919050565b600082825260208201905092915050565b6000819050602082019050919050565b60006115db8383611453565b60208301905092915050565b6000602082019050919050565b60006115ff826115a3565b61160981856115ae565b9350611614836115bf565b8060005b8381101561164557815161162c88826115cf565b9750611637836115e7565b925050600181019050611618565b5085935050505092915050565b600081519050919050565b600082825260208201905092915050565b60005b8381101561168c578082015181840152602081019050611671565b60008484015250505050565b6000601f19601f8301169050919050565b60006116b482611652565b6116be818561165d565b93506116ce81856020860161166e565b6116d781611698565b840191505092915050565b6000819050919050565b600061ffff82169050919050565b600061171561171061170b846116e2565b610e07565b6116ec565b9050919050565b611725816116fa565b82525050565b600060e082019050611740600083018a61104c565b81810360208301526117528189611545565b9050818103604083015261176681886115f4565b9050818103606083015261177a81876115f4565b9050611789608083018661104c565b81810360a083015261179b81856116a9565b90506117aa60c083018461171c565b98975050505050505050565b7f496e76616c69642063616c6c6572000000000000000000000000000000000000600082015250565b60006117ec600e836112ef565b91506117f7826117b6565b602082019050919050565b6000602082019050818103600083015261181b816117df565b9050919050565b600080fd5b61183082611698565b810181811067ffffffffffffffff8211171561184f5761184e6113e6565b5b80604052505050565b6000611862610e81565b905061186e8282611827565b919050565b600060a0828403121561188957611888611822565b5b61189360a0611858565b905060006118a384828501610ebe565b60008301525060206118b784828501610ebe565b60208301525060406118cb84828501610ebe565b60408301525060606118df84828501610f21565b60608301525060806118f384828501610f59565b60808301525092915050565b600060a0828403121561191557611914610e8b565b5b600061192384828501611873565b91505092915050565b600060a082019050611941600083018861104c565b61194e602083018761104c565b61195b604083018661104c565b611968606083018561136c565b6119756080830184611283565b9695505050505050565b7f4e487b7100000000000000000000000000000000000000000000000000000000600052601160045260246000fd5b60006119b982610f00565b91506119c483610f00565b92508282019050808211156119dc576119db61197f565b5b92915050565b60006040820190506119f7600083018561136c565b611a04602083018461136c565b9392505050565b7f4e6f2045544820746f2077697468647261770000000000000000000000000000600082015250565b6000611a416012836112ef565b9150611a4c82611a0b565b602082019050919050565b60006020820190508181036000830152611a7081611a34565b905091905056fea264697066735822122010aaf48351a0f282d101b48d04d65c5005f5bf8c5f87c8e26fb8d2c95ed95b3c64736f6c63430008140033",
  "linkReferences": {},
  "deployedLinkReferences": {}
}